:1000000018EF00F0EA6A070EE96EEF50D8B417EF68
:1000100000F0010E016E006A002EFED7012EFBD704
:100020004A0E006E002EFED700D0EF2EF2D712003F
:10003000F86AD09E600ED36ED350C150C00B0F092A
:10004000C16E070EB46E0590FE0E926E010E936E99
:1000500092908990938081A020D0C80E076ED2DF45
:10006000938081A004D0C80E076ECCDFF9D705704D
:1000700005A013D092908980040E066EFA0E076ECA
:10008000C1DF062EFBD792908990040E066EFA0E01
:0E009000076EB8DF062EFBD7EBD7DCD70300D8
:020000040030CA
:0E00000027C8381E0087A1000FC00FE00F4078
:00000001FF
;PIC18F4550
;CRC=FF86  CREATED="11-mar.-24 23:42"
