:1000000001308A004B2900008C297710311D000037
:100010004F2700014F23460020193A004F270001C7
:100020004F23460027308400831300080319262835
:100030000130F800F701F70B1B28F80B1A284A309B
:10004000F700F70B21282428800B182808002D0E14
:10005000F039F7000F300805770488000000081415
:100060003128081008000808F700080E0F39F800BA
:1000700008008316081088100811831288100F30AA
:1000800083160805F038880083120815000008144C
:10009000000033207808AD000810000008140000AC
:1000A00033207808AC0008100F308316080588004C
:1000B00083122D0EF700F030F70577082C04F800B6
:1000C0007808AC00AC1B3F282A1C88102A1888141A
:1000D00000000811000008102B0EAC000F30AC051A
:1000E0002C08AD0027202B080F39AC00AD002720CD
:1000F00008002830A3000C30A4000130A500063011
:10010000A6000810881008110F3083160805880013
:100110000810881008110F308312A7001220013038
:10012000A2002208033C031C9D280330AD002720B9
:100130000530A7001220A20A91280230AD00272026
:100140000530A7001220A2012208033C031CB4289A
:1001500023302207840083130008A700AA01270880
:10016000AB003920A20AA4288A110A125C29270BA5
:10017000BA28BD284030A800BE28A80101302602B8
:10018000A80728088038A900AA012908AB0039204F
:1001900008002508073A0319D7280B3A0319DC2869
:1001A000063A0319E428023A0319EA28EF28013035
:1001B000A600A700B720F428AA010130AB0039201F
:1001C0000230A7001220F4280130A6000230A70058
:1001D000B720F428AA011030AB003920F4280130F0
:1001E000AA002508AB00392008000B08A2008B13D9
:1001F000831603178C170C140000000083120313DE
:10020000A21B8B1703170C087F3903194929031305
:10021000A20003170D080313A30003170F0803130D
:10022000A4002208A500C920230803178D0003138A
:10023000240803178F0003130B08A5008B138316E4
:1002400003178C170C140000000083120313A51B66
:100250008B1703170C0D0E0D7F3903194929031352
:10026000A20003170D080313A30003170F080313BD
:10027000A4002208A500C920230803178D0003133A
:10028000240803178F008D0A03198F0A0313F5281A
:1002900003170313080003081F398300A101A001FD
:1002A00083161F149F141F159F11831383120B13A2
:1002B0008B138B1B58297928043003178D000030CD
:1002C0008F000313F520831606148312061C702971
:1002D000083003178D0000308F000313F5207729B5
:1002E0000A3003178D0000308F000313F5200C3007
:1002F00003178D0000308F000313F520831686143A
:100300008312861C8B290E3003178D0000308F005E
:100310000313F5209229103003178D0000308F0051
:0E0320000313F5206430A70012205C2963004F
:02400E00313F40
:00000001FF
;PIC16F877
;CRC=D26A  CREATED="04-mar.-24 10:56"
