:1000000000308A00302800002E08F8012D02031865
:100010000C282D08F7001828F7010830AF00AD0DA7
:10002000F70D2E0877020318F700F80DAF0B0F2815
:1000300008002D3084008313000803192D28013097
:10004000F800F701F70B2228F80B21284A30F700B7
:10005000F70B28282B28800B1F288A110A128028CA
:1000600003081F39830083161F149F141F159F1147
:1000700083133F308312A0000630A1005B30A20042
:100080004F30A3006630A4006D30A5007D30A6007F
:100090000730A7007F30A8006F30A9003F308316DB
:1000A0008500003086008800FF3085008312050837
:1000B0003F39AA00AD000A30AE0004207808AB003A
:1000C0002A08AD000A30AE0004207708AC002030CA
:1000D0002C07840083130008AD0083168601831269
:1000E0002D08860020302B07840083130008AD0004
:1000F0008316880183122D088800FA30AD00192874
:0601000083165428630081
:02400E00723FFF
:00000001FF
;PIC16F877
;CRC=EDF6  CREATED="24-feb.-24 15:35"
