:1000000035EF00F0000E936E8A90936E8A82936EA5
:100010008A94936E8A8642EF00F0000E936E8A8077
:10002000936E8A82936E8A84936E8A8648EF00F07C
:10003000000E936E8A80936E8A82936E8A94936E7A
:100040008A864EEF00F0000E936E8A90936E8A823D
:10005000936E8A84936E8A8654EF00F0000E936E3E
:100060008A92936E8A9656EF00F0F86AD09EC1503D
:10007000C00B0F09C16E070EB46E000E936E81AEF9
:1000800002D0C0D713D0000E936E81AC02D0C5D77A
:100090000DD0000E936E81A802D0CAD707D0000EF3
:1000A000936E81AA02D0CFD701D0D8D7E6D703006C
:020000040030CA
:0E00000004CC381E008781000FC00FE00F40B7
:00000001FF
;PIC18F2550
;CRC=D5C5  CREATED="24-feb.-24 19:29"
