:1000000002308A00942A0000F81E303CB418A03C4C
:100010003D18782341000C00C432E334ED306C1DF0
:1000200000010C00C832F830E432E334ED306C1DCE
:100030000001F81E303C252CA03C3D18F812580059
:100040000C00CF31F4306C1D00010C00C129C32419
:10005000491D00010C002B30840083130008031994
:100060003F280130F800F701F70B3428F80B33284C
:100070004A30F700F70B3A283D28800B312808005A
:1000800032184428081245280816831608128312CD
:10009000B2184C2888124D288816831688128312AD
:1000A0003219542808135528081783160813831289
:1000B000B2195C2888135D288817831688130000FE
:1000C00083120814831608106528831208108316FB
:1000D000081083120800B30183160816003083123B
:1000E000081A0130B3048316881600308312881A68
:1000F0000130F7000310F70D7708B30483160817D3
:1001000000308312081B0130F700F70DF70DFC30AB
:10011000F7057708B3048316881700308312881B0D
:100120000130F700F70DF70DF70DF830F7057708F8
:10013000B3043308F800080083160810881008116B
:1001400083128810831688100816881608178817D7
:1001500083120815831608110000831208148316F1
:100160000810000083126B207808B2000810831674
:100170000810000083120814831608100000831270
:100180006B207808B1000810831608100812881236
:10019000081388138312320EF700F030F705770842
:1001A0003104F8007808B100B11FD8288316A428BC
:1001B000AF08031DDD288810DE28881483168810F8
:1001C0000000831208118316081100008312081022
:1001D000831608108312300EB1000F30B1053108BC
:1001E000B200402030080F39B100B20040200800B2
:1001F0002830A5000C30A6000130A7000630A8006A
:100200000810831608108312881083168810831232
:100210000811831608110812881208138813081091
:10022000881008110F308312AB002B200130A4007E
:100230002408033C031C24290330B200402005306D
:10024000AB002B20A40A18290230B2004020053050
:10025000AB002B20A4012408033C031C3B292530C0
:100260002407840083130008A900AF012908B00007
:100270009C20A40A2B298A110A12A72A2C0B412997
:1002800044294030AD004529AD0101302B02AD07B6
:100290002D088038AE00AF012E08B0009C20080069
:1002A0002A08073A03195E290B3A03196329063A0B
:1002B00003196B29023A0319712976290130AB0021
:1002C000AC003E217B29AF010130B0009C20023000
:1002D000AB002B207B290130AB000230AC003E216B
:1002E0007B29AF011030B0009C207B290130AF008A
:1002F0002A08B0009C2008000B08A4008B1383166A
:1003000003178C170C140000000083120313A41BA6
:100310008B1703170C087F390319D0290313A40086
:1003200003170D080313A50003170F080313A600F6
:100330002408AA005021250803178D00031326085E
:1003400003178F0003130B08A7008B1383160317E3
:100350008C170C140000000083120313A71B8B17CB
:1003600003170C0D0E0D7F390319D0290313A400B8
:1003700003170D080313A50003170F080313A600A6
:100380002408AA005021250803178D00031326080E
:1003900003178F008D0A03198F0A03137C29031793
:1003A000031308002708F80126020318DA29260893
:1003B000F700E629F7010830A800A60DF70D270879
:1003C00077020318F700F80DA80BDD29080078085C
:1003D0002408A6006430A700D2217708A40078087A
:1003E0003030031DFA29A51C012AA519012A251A56
:1003F0002030FD29A51125122514F8077808AA0038
:1004000050212408A6000A30A700D2217708A400B2
:1004100078083030031D122AA519162A251C162A21
:10042000251A2030F8077808AA0050213030A40798
:100430002408AA00502108000B08A5008B1383167E
:1004400003178C170C140000000083120313A51B64
:100450008B170318532A03170C087F390313A500C1
:1004600003170D080313A60003170F080313A700B3
:100470002508AA005021260803178D00031327081A
:1004800003178F0003130B08A8008B1383160317A1
:100490008C170C140000000083120313A81B8B1789
:1004A000A40B532A722A03170C0D0E0D7F39031368
:1004B000A50003170D080313A60003170F08031365
:1004C000A7002508AA005021260803178D00031352
:1004D000270803178F008D0A03198F0A03100313CF
:1004E000A40B1C2A0800A51B852A0F30F700240E38
:1004F000F7050A3077020318802A3030F707822A7E
:100500002508F7077708AA0050210F30A4050A3004
:10051000240203188D2A30308F2AA5132508A4073A
:100520002408AA005021080003081F398300A101F4
:10053000A00183161F149F141F159F1107309C00E4
:10054000831341308312A200FA30A300F82804304C
:1005500003178D0000308F0003137C210830A400A6
:10056000FA30AB002B20A40BB02A0B3003178D0000
:1005700000308F0003137C210C3003178D000030F6
:100580008F0003137C210130AB000230AC003E2110
:100590007830AA0050213D30AA0050212208A40042
:1005A0001B30A500E7212030AA0050217930AA0095
:1005B00050213D30AA0050212308A4001B30A50083
:1005C000E7210830A400FA30AB002B20A40BE32A6B
:1005D000113003178D0000308F0003137C2112307F
:1005E00003178D0000308F0003137C210130AB0016
:1005F0000230AC003E21193003178D0000308F000F
:10060000031004300313A4001C222208A400373076
:10061000A50073221C3003178D0000308F000310DB
:1006200005300313A4001C222308A4003730A500C2
:1006300073220830A400FA30AB002B20A40B1B2B34
:10064000203003178D0000308F0003137C212130F0
:1006500003178D0000308F0003137C210130AB00A5
:100660000230AC003E21220EF700F70CF70C0330ED
:10067000F70577080739303EA400220CF700F70C85
:10068000F70C1F30F70577080739303EA500220820
:100690000739303EA600230EF700F70CF70C0330A5
:1006A000F70577080739303EA700230CF700F70C51
:1006B000F70C1F30F70577080739303EA8002308EC
:1006C0000739303EA9007830AA0050213D30AA00F9
:1006D00050212408AA0050212508AA0050212608EC
:1006E000AA0050212030AA0050217930AA005021C0
:1006F0003D30AA0050212708AA0050212808AA004E
:1007000050212908AA0050210830A400FA30AB007B
:100710002B20A40B862B253003178D0000308F0073
:1007200003137C21263003178D0000308F00031344
:100730007C210130AB000230AC003E217830AA00B1
:1007400050213D30AA0050212208AA00502120301B
:10075000AA0050217930AA0050213D30AA00502132
:100760002308AA0050210830A400FA30AB002B2047
:10077000A40BB52B2A3003178D0000308F00031314
:060780007C21C12B630087
:02400E00313F40
:00000001FF
;PIC16F877A
;CRC=0ACF  CREATED="05-mar.-24 18:50"
