:0400000067EF00F0B6
:08000800046ED8CF05F0E0CF33
:1000100006F00001E9CF0CF0EACF07F0E1CF08F0DD
:10002000E2CF09F0D9CF0AF0DACF0BF0F3CF12F01C
:10003000F4CF13F0FACF14F0F5CF15F0F6CF16F099
:10004000F7CF17F000C00EF001C00FF002C010F0A3
:1000500003C011F09DA030EF00F09EB05DEF00F006
:10006000A0A236EF00F0A1B262EF00F00EC000F0E7
:100070000FC001F010C002F011C003F00CC0E9FF86
:1000800007C0EAFF078E08C0E1FF09C0E2FF0AC00F
:10009000D9FF0BC0DAFF12C0F3FF13C0F4FF14C086
:1000A000FAFF15C0F5FF16C0F6FF17C0F7FF0450A2
:1000B00006C0E0FF05C0D8FF1000929089709E90A6
:1000C00036EF00F092928972A19236EF00F0F86A52
:1000D000D09E078EC150C00B0F09C16E070EB46EC3
:1000E000400ED36ED350B50ECD6E0B0ECF6EDC0E20
:1000F000CE6EB50EB16E0B0EB36EDC0EB26E9D8081
:0A010000A082C00EF212FFD7030028
:020000040030CA
:0E0000003FCF3E1E0085A1000FC00FE00F4055
:00000001FF
;PIC18F4550
;CRC=DC36  CREATED="27-abr.-24 19:50"
