:0400000067EF00F0B6
:08000800046ED8CF05F0E0CF33
:1000100006F00001E9CF0CF0EACF07F0E1CF08F0DD
:10002000E2CF09F0D9CF0AF0DACF0BF0F3CF12F01C
:10003000F4CF13F0FACF14F0F5CF15F0F6CF16F099
:10004000F7CF17F000C00EF001C00FF002C010F0A3
:1000500003C011F09DA030EF00F09EB05DEF00F006
:100060009DA236EF00F09EB262EF00F00EC000F0ED
:100070000FC001F010C002F011C003F00CC0E9FF86
:1000800007C0EAFF078E08C0E1FF09C0E2FF0AC00F
:10009000D9FF0BC0DAFF12C0F3FF13C0F4FF14C086
:1000A000FAFF15C0F5FF16C0F6FF17C0F7FF0450A2
:1000B00006C0E0FF05C0D8FF100093908A709E90A4
:1000C00036EF00F093928A729E9236EF00F0F86A53
:1000D000D09E078EC150C00B0F09C16E070EB46EC3
:1000E000000E936EB50ECD6E420ECF6E400ECE6EEC
:1000F000780E0609CA6EFA0ECB6E9D809D82C00EE8
:0A010000F21293908A80FFD70300EB
:020000040030CA
:0E0000003FC03F1E008781000FC00FE00F4081
:00000001FF
;PIC18F2550
;CRC=CCA6  CREATED="10-may.-24 11:18"
