:1000000002EF00F0F86AD09EC150C00B0F09C16E1C
:10001000070EB46EC150C00B0F09C16E010E956E74
:10002000000E936E936A8A6A056A010E076E086E67
:100030009580066A83B0062A0652D8B440EF00F0D5
:100040000552D8A440EF00F0076C086C072C2FEF86
:1000500000F093908A8093928A9233EF00F093900D
:100060008A9093928A82082C3CEF00F093948A84C1
:1000700093968A9640EF00F093948A9493968A869A
:0A00800006C005F018EF00F00300C1
:020000040030CA
:0E00000000C0381E0087A1000FC000E00F40B6
:00000001FF
;PIC18F4550
;CRC=78E7  CREATED="12-mar.-24 13:00"
