:1000000002308A00572A00000A108A100A1182075B
:10001000313432343334343435343634373438349C
:1000200039342A34303423340C10CC32F9326E3265
:100030006F10D432633661326F0500000C10D43279
:1000400063366110F3346737EF1EA01263050000BA
:100050000C10D43263366110CE373D10A5310A0042
:100060000C10CC32F9326E326F10D43263366132FA
:100070006F0500002E3084008313000803194E28FA
:100080000130F800F701F70B4328F80B42284A30FB
:10009000F700F70B49284C28800B40280800350E44
:1000A000F039F7000F3008057704880000000814C5
:1000B0005928081008000808F700080E0F39F80042
:1000C00008008316081088100811831288100F305A
:1000D00083160805F03888008312081500000814FC
:1000E00000005B207808B50008100000081400002C
:1000F0005B207808B40008100F30831608058800CC
:100100008312350EF700F030F70577083404F80055
:100110007808B400B41B6728321C88103218881481
:100120000000081100000810330EB4000F30B405B1
:100130003408B5004F2033080F39B400B5004F2004
:1001400008002830AA000C30AB000130AC000630AB
:10015000AD000810881008110F30831608058800BC
:100160000810881008110F308312AE003A200130B9
:10017000A9002908033C031CC5280330B5004F2003
:100180000530AE003A20A90AB9280230B5004F2048
:100190000530AE003A20A9012908033C031CDC28E5
:1001A0002A302907840083130008AE00B2012E080C
:1001B000B3006120A90ACC288A110A126C2A8A117C
:1001C0000A126D2A2F0BE528E8284030B000E928F4
:1001D000B00101302E02B00730088038B100B20102
:1001E0003108B300612008002D08073A03190229DD
:1001F0000B3A03190729063A03190F29023A031982
:1002000015291A290130AE00AF00E2201F29B201E2
:100210000130B30061200230AE003A201F290130C6
:10022000AE000230AF00E2201F29B2011030B3004F
:1002300061201F290130B2002D08B30061200800A1
:100240000B08A9008B13831603178C170C140000DE
:10025000000083120313A91B8B1703170C087F39A7
:10026000031974290313A90003170D080313AA0027
:1002700003170F080313AB002908AD00F4202A0868
:1002800003178D0003132B0803178F0003130B08AC
:10029000AC008B13831603178C170C14000000009E
:1002A00083120313AC1B8B1703170C0D0E0D7F3934
:1002B000031974290313A90003170D080313AA00D7
:1002C00003170F080313AB002908AD00F4202A0818
:1002D00003178D0003132B0803178F008D0A0319D2
:1002E0008F0A03132029031703130800A901A00A8A
:1002F0002008213C0318F729230803198629013A0D
:1003000003198C29033A031992299729DE308316A1
:100310008600831286009729BE30831686008312DA
:10032000860097297E308316860083128600211C62
:10033000A32906081E391E3C031DA22921102208EC
:10034000A900A201F62906081E391E3C0319F1294D
:1003500006080239031DAE29AA01C229060804397C
:10036000031DB5290130AA00C22906080839031D5A
:10037000BC290230AA00C22906081039031DC2296F
:100380000330AA002A08AB000330AC00F701F801E3
:100390002B0803102C18F707F70CF80CAC18F7070C
:1003A000F70CF80C2C19F707F70CF80CAC19F70739
:1003B000F70CF80C2C1AF707F70CF80CAC1AF70727
:1003C000F70CF80C2C1BF707F70CF80CAC1BF70715
:1003D000F70CF80C230878070420F800A200211479
:1003E000F629A30A2308033C0319A301A001FE3048
:1003F0008316860083122908F8008A110A12782AC7
:100400000B08AA008B13831603178C170C1400001B
:10041000000083120313AA1B8B170318372A031734
:100420000C087F390313AA0003170D080313AB0050
:1004300003170F080313AC002A08AD00F4202B08A3
:1004400003178D0003132C0803178F0003130B08E9
:10045000AD008B13831603178C170C1400000000DB
:1004600083120313AD1B8B17A90B372A562A0317C8
:100470000C0D0E0D7F390313AA0003170D0803138B
:10048000AB0003170F080313AC002A08AD00F420DB
:100490002B0803178D0003132C0803178F008D0AF8
:1004A00003198F0A03100313A90B002A080003087D
:1004B0001F398300A701A60183161F149F141F155F
:1004C0009F1107309C0083138312A0012110A20109
:1004D000A301A401A501A128DF28831681131430EC
:1004E000831203178D0000308F000313202176291B
:1004F0007808A800A8080319B42A28082A3C031978
:10050000852A2808233C031D962A1E3003178D00D8
:1005100000308F0003100F300313A90000222808B9
:10052000AD00F4200A30AD00F420A62A28300317CD
:100530008D0000308F0003100C300313A90000223F
:100540002808AD00F4200A30AD00F4200230A900E4
:10055000FA30AE003A20A90BA82A303003178D00DC
:0C05600000308F0003132021772A630075
:02400E00713F00
:00000001FF
;PIC16F877A
;CRC=E0FB  CREATED="11-mar.-24 21:29"
