:1000000000308A00302800003008F8012F02031861
:100010000C282F08F7001828F7010830B100AF0DA1
:10002000F70D300877020318F700F80DB10B0F2811
:1000300008002F3084008313000803192D28013095
:10004000F800F701F70B2228F80B21284A30F700B7
:10005000F70B28282B28800B1F288A110A128728C3
:1000600003081F39830083161F149F141F159F1147
:1000700083133F308500003086008800860183129C
:10008000860183168801831288013F30A100063063
:10009000A2005B30A3004F30A4006630A5006D3095
:1000A000A6007D30A7000730A8007F30A9006F3080
:1000B000AA00AE012E08633C031C89282E08AB0061
:1000C0002B08AF000A30B00004207808AC002B08E1
:1000D000AF000A30B00004207708AD0021302C07B3
:1000E000840083130008AF008316860183122F0853
:1000F000860021302D07840083130008AF0083168B
:10010000880183122F088800C830AF001928AE0A72
:060110005A285928630083
:02400E00723FFF
:00000001FF
;PIC16F877
;CRC=8DE2  CREATED="06-mar.-24 08:51"
